{
  hash: '0x1fc74c8b61cae6c1f47166966ca176655a8f2a4454f46654d7c6413ed76fadc2',
  parentHash: '0xf1057ad9d3cbd1367f3f3e8bd62630cf219ef83fdc87a3870adf6eb7cf13b1f3',
  number: 31263713,
  timestamp: 1650996168,
  difficulty: null,
  gasLimit: BigNumber { _hex: '0x01c9c380', _isBigNumber: true },
  gasUsed: BigNumber { _hex: '0x118ef7', _isBigNumber: true },
  miner: '0x596e8221A30bFe6e7eFF67Fee664A01C73BA3C56',
  extraData: '0xdb830303018c4f70656e457468657265756d86312e34382e30826c69',
  transactions: [
    {
      hash: '0xf396b3d2e6e3e07082f7a4eddc3e6727efa352c7b6df00b5a31f9bac8f7c2bce',
      type: 0,
      accessList: null,
      blockHash: '0x1fc74c8b61cae6c1f47166966ca176655a8f2a4454f46654d7c6413ed76fadc2',
      blockNumber: 31263713,
      transactionIndex: 0,
      confirmations: 9,
      from: '0x48fc495922Be79fB7D27eE267a1DFC4858b585c9',
      gasPrice: [BigNumber],
      gasLimit: [BigNumber],
      to: '0x13D3B4b38B7BF7B468Dbee13a7ce74611B8b41a4',
      value: [BigNumber],
      nonce: 8616,
      data: '0x371d3071762ca03c99d3f174af12cdaff568ba3cd4c1fe569b5e0212df6219703f105d2c824845a5acf34249d30aa297562d443555f497dc8d904e56dec0bd95c9cfe3daad3228b676f7d3cd4284a5443f17f1962b36e491b30a40b2405849e597ba5fb5b4c11951957c6f8f642c4af61cd6b24640fec6dc7fc607ee8206a99e92410d3021ddb9a356815c3fac1026b6dec5df3124afbadb485c9ba5a3e3398a04b7ba85e58769b32a1beaf1ea27375a44095a0d1fb664ce2dd358e7fcbfb78c26a193441de1cc140a04382f3393ffdd90530b71db48f96ea229de2721ca2588323324eb7306185a8c63303dd86ff47ad0f3b341c799c51a3dccb828c2a3d9ad36258217ffd70157e48063fc33c97a050f7f640233bf646cc98d9524c6b92bcf3ab56f839867cc5f7f196b93bae1e27e6320742445d290f2263827498b54fec539f756afa6eb2e23718a08e5440d60c51096aaa039174f909e9eefb918a0f54e72cca8272bffb9d1ec7e372283397a3ba9ea8b821d0a205b3b5285d92d98eb7e90230a03f8b13a49e282f609c317a833fb8d976d11517c571d1221a265d25af778ecf8923490c6ceeb450aecdc82e28293031d10c7d73bf85e57bf041a97360aa2c5d99cc1df82d9c4b87413eae2ef048f94b4d3554cea73d92b0f7af96e0271c691e2bb5c67add7c6caf302256adedf7ab114da0acfe870d449a3a489f781d659e8beccda7bce9f4e8618b6bd2f4132ce798cdc7a60e7e1460a7299e3c6342a579626d22733e50f526ec2fa19a22b31e8ed50f23cd1fdf94c9154ed3a7609a2f1ff981fe1d3b5c807b281e4683cc6d6315cf95b9ade8641defcb32372f1c126e398ef7a5a2dce0a8a7f68bb74560f8f71837c2c2ebbcbf7fffb42ae1896f13f7c7479a0b46a28b6f55540f89444f63de0378e3d121be09e06cc9ded1c20e65876d36aa0c65e9645644786b620e2dd2ad648ddfcbf4a7e5b1a3a4ecfe7f64667a3f0b7e2f4418588ed35a2458cffeb39b93d26f18d2ab13bdce6aee58e7b99359ec2dfd95a9c16dc00d6ef18b7933a6f8dc65ccb55667138776f7dea101070dc8796e3774df84f40ae0c8229d0d6069e5c8f39a7c299677a09d367fc7b05e3bc380ee652cdc72595f74c7b1043d0e1ffbab734648c838dfb0527d971b602bc216c9619ef0abf5ac974a1ed57f4050aa510dd9c74f508277b39d7973bb2dfccc5eeb0618db8cd74046ff337f0a7bf2c8e03e10f642c1886798d71806ab1e888d9e5ee87d0838c5655cb21c6cb83313b5a631175dff4963772cce9108188b34ac87c81c41e662ee4dd2dd7b2bc707961b1e646c4047669dcb6584f0d8d770daf5d7e7deb2e388ab20e2573d171a88108e79d820e98f26c0b84aa8b2f4aa4968dbb818ea32293237c50ba75ee485f4c22adf2f741400bdf8d6a9cc7df7ecae576221665d7358448818bb4ae4562849e949e17ac16e0be16688e156b5cf15e098c627c0056a90000000000000000000000000000000000000000000000000000000000000660',
      r: '0xdf511888bb97099983c62afda209730ade22c23d00e7546b0924260fc16dde8a',
      s: '0x1ea22d87bf99026c99b92bb97edf1d9f91b681fc98e638137389573609d54b54',
      v: 120,
      creates: null,
      raw: '0xf904ad8221a88501042c9e0c83030d409413d3b4b38b7bf7b468dbee13a7ce74611b8b41a480b90444371d3071762ca03c99d3f174af12cdaff568ba3cd4c1fe569b5e0212df6219703f105d2c824845a5acf34249d30aa297562d443555f497dc8d904e56dec0bd95c9cfe3daad3228b676f7d3cd4284a5443f17f1962b36e491b30a40b2405849e597ba5fb5b4c11951957c6f8f642c4af61cd6b24640fec6dc7fc607ee8206a99e92410d3021ddb9a356815c3fac1026b6dec5df3124afbadb485c9ba5a3e3398a04b7ba85e58769b32a1beaf1ea27375a44095a0d1fb664ce2dd358e7fcbfb78c26a193441de1cc140a04382f3393ffdd90530b71db48f96ea229de2721ca2588323324eb7306185a8c63303dd86ff47ad0f3b341c799c51a3dccb828c2a3d9ad36258217ffd70157e48063fc33c97a050f7f640233bf646cc98d9524c6b92bcf3ab56f839867cc5f7f196b93bae1e27e6320742445d290f2263827498b54fec539f756afa6eb2e23718a08e5440d60c51096aaa039174f909e9eefb918a0f54e72cca8272bffb9d1ec7e372283397a3ba9ea8b821d0a205b3b5285d92d98eb7e90230a03f8b13a49e282f609c317a833fb8d976d11517c571d1221a265d25af778ecf8923490c6ceeb450aecdc82e28293031d10c7d73bf85e57bf041a97360aa2c5d99cc1df82d9c4b87413eae2ef048f94b4d3554cea73d92b0f7af96e0271c691e2bb5c67add7c6caf302256adedf7ab114da0acfe870d449a3a489f781d659e8beccda7bce9f4e8618b6bd2f4132ce798cdc7a60e7e1460a7299e3c6342a579626d22733e50f526ec2fa19a22b31e8ed50f23cd1fdf94c9154ed3a7609a2f1ff981fe1d3b5c807b281e4683cc6d6315cf95b9ade8641defcb32372f1c126e398ef7a5a2dce0a8a7f68bb74560f8f71837c2c2ebbcbf7fffb42ae1896f13f7c7479a0b46a28b6f55540f89444f63de0378e3d121be09e06cc9ded1c20e65876d36aa0c65e9645644786b620e2dd2ad648ddfcbf4a7e5b1a3a4ecfe7f64667a3f0b7e2f4418588ed35a2458cffeb39b93d26f18d2ab13bdce6aee58e7b99359ec2dfd95a9c16dc00d6ef18b7933a6f8dc65ccb55667138776f7dea101070dc8796e3774df84f40ae0c8229d0d6069e5c8f39a7c299677a09d367fc7b05e3bc380ee652cdc72595f74c7b1043d0e1ffbab734648c838dfb0527d971b602bc216c9619ef0abf5ac974a1ed57f4050aa510dd9c74f508277b39d7973bb2dfccc5eeb0618db8cd74046ff337f0a7bf2c8e03e10f642c1886798d71806ab1e888d9e5ee87d0838c5655cb21c6cb83313b5a631175dff4963772cce9108188b34ac87c81c41e662ee4dd2dd7b2bc707961b1e646c4047669dcb6584f0d8d770daf5d7e7deb2e388ab20e2573d171a88108e79d820e98f26c0b84aa8b2f4aa4968dbb818ea32293237c50ba75ee485f4c22adf2f741400bdf8d6a9cc7df7ecae576221665d7358448818bb4ae4562849e949e17ac16e0be16688e156b5cf15e098c627c0056a9000000000000000000000000000000000000000000000000000000000000066078a0df511888bb97099983c62afda209730ade22c23d00e7546b0924260fc16dde8aa01ea22d87bf99026c99b92bb97edf1d9f91b681fc98e638137389573609d54b54',
      chainId: 42,
      wait: [Function (anonymous)]
    },
    {
      hash: '0xb0f91b38789096dad3d0dfceb459c0ecbea0821b648f127ed76cd2972ccc46a6',
      type: 0,
      accessList: null,
      blockHash: '0x1fc74c8b61cae6c1f47166966ca176655a8f2a4454f46654d7c6413ed76fadc2',
      blockNumber: 31263713,
      transactionIndex: 1,
      confirmations: 9,
      from: '0xeE3c0B0D3338aE53BE5f41B058265469059165f1',
      gasPrice: [BigNumber],
      gasLimit: [BigNumber],
      to: '0xC36442b4a4522E871399CD717aBDD847Ab11FE88',
      value: [BigNumber],
      nonce: 4506,
      data: '0x88316456000000000000000000000000d0a1e359811322d97991e03f863a0c30c2cf029c000000000000000000000000e22da380ee6b445bb8273c81944adeb6e84504220000000000000000000000000000000000000000000000000000000000000bb8fffffffffffffffffffffffffffffffffffffffffffffffffffffffffffddadcfffffffffffffffffffffffffffffffffffffffffffffffffffffffffffdddac00000000000000000000000000000000000000000000000000038d7ea4c680000000000000000000000000000000000000000000000000000000000018560e8800000000000000000000000000000000000000000000000000000000000000000000000000000000000000000000000000000000000000000000000000000000000000000000000000000000ee3c0b0d3338ae53be5f41b058265469059165f10000000000000000000000000000000000000000000000000000000062683875',
      r: '0x8f27d0d48a4ec71be961d80931effb78d0f868c80f748d4598e53a52920fd422',
      s: '0x574411439564b02f56c4251d1e97bc453b1a39c1aee91140134792e73812ad92',
      v: 119,
      creates: null,
      raw: '0xf901d382119a84c3217689830b305294c36442b4a4522e871399cd717abdd847ab11fe8887038d7ea4c68000b9016488316456000000000000000000000000d0a1e359811322d97991e03f863a0c30c2cf029c000000000000000000000000e22da380ee6b445bb8273c81944adeb6e84504220000000000000000000000000000000000000000000000000000000000000bb8fffffffffffffffffffffffffffffffffffffffffffffffffffffffffffddadcfffffffffffffffffffffffffffffffffffffffffffffffffffffffffffdddac00000000000000000000000000000000000000000000000000038d7ea4c680000000000000000000000000000000000000000000000000000000000018560e8800000000000000000000000000000000000000000000000000000000000000000000000000000000000000000000000000000000000000000000000000000000000000000000000000000000ee3c0b0d3338ae53be5f41b058265469059165f1000000000000000000000000000000000000000000000000000000006268387577a08f27d0d48a4ec71be961d80931effb78d0f868c80f748d4598e53a52920fd422a0574411439564b02f56c4251d1e97bc453b1a39c1aee91140134792e73812ad92',
      chainId: 42,
      wait: [Function (anonymous)]
    },
    {
      hash: '0x9a1fff6489188d54ffab82be0cf56b7aae057d5f94ad1ba1aa3c0f9c934b63ed',
      type: 2,
      accessList: [],
      blockHash: '0x1fc74c8b61cae6c1f47166966ca176655a8f2a4454f46654d7c6413ed76fadc2',
      blockNumber: 31263713,
      transactionIndex: 2,
      confirmations: 9,
      from: '0x17480e3B42Af2C5E721e66b47ed8f41B5daFCDA3',
      gasPrice: [BigNumber],
      maxPriorityFeePerGas: [BigNumber],
      maxFeePerGas: [BigNumber],
      gasLimit: [BigNumber],
      to: '0x9f6738Fc502C25dDb0Ea4cD0A04f6Fd87F34f318',
      value: [BigNumber],
      nonce: 113,
      data: '0x8340f54900000000000000000000000013512979ade267ab5100878e2e0f485b568328a400000000000000000000000017480e3b42af2c5e721e66b47ed8f41b5dafcda30000000000000000000000000000000000000000000000000000000000000001',
      r: '0x8764884345382150f86c413554bc6191cd87e038b66ca44a8d477cd2349c7581',
      s: '0x07279eddf4f68839bcfb47604a9195f9e26a6dbc0ef9025f290b5ce29ed1e241',
      v: 0,
      creates: null,
      raw: '0x02f8d02a71849502f900849502f90e832dc6c0949f6738fc502c25ddb0ea4cd0a04f6fd87f34f31880b8648340f54900000000000000000000000013512979ade267ab5100878e2e0f485b568328a400000000000000000000000017480e3b42af2c5e721e66b47ed8f41b5dafcda30000000000000000000000000000000000000000000000000000000000000001c080a08764884345382150f86c413554bc6191cd87e038b66ca44a8d477cd2349c7581a007279eddf4f68839bcfb47604a9195f9e26a6dbc0ef9025f290b5ce29ed1e241',
      chainId: 42,
      wait: [Function (anonymous)]
    },
    {
      hash: '0xee31ecdc2d517cf508f638f4e76d885450c85429f6235ded670b078b1198814f',
      type: 0,
      accessList: null,
      blockHash: '0x1fc74c8b61cae6c1f47166966ca176655a8f2a4454f46654d7c6413ed76fadc2',
      blockNumber: 31263713,
      transactionIndex: 3,
      confirmations: 9,
      from: '0x4Beb72F21063D061d42bad47F0723769C3Bda925',
      gasPrice: [BigNumber],
      gasLimit: [BigNumber],
      to: '0x0ec8Ed90154778e52E8BA3503c9d62419c552E62',
      value: [BigNumber],
      nonce: 161,
      data: '0x4ab0d1908cbb6b8c62ed8f9d71c4e9aa92d24abd4a2c655b2f8b2d9f261facffff27c397000000000000000000000000000000000000000000000000000000174876e800000000000000000000000000d7da7f9e8a199e733b8a9f6f9d0a9b1170a1b9b1917dbe350000000000000000000000000000000000000000000000000000000000000000000000000000000000000000000000000000000000000000626834ec00000000000000000000000000000000000000000000000000000000000004d2',
      r: '0x4734d16e4b2aaa9cf04eb1bebfc13a52c94e2ac010d1caae6fcae6ef70c8181d',
      s: '0x39944c1dfdee13ed258bf191f3721a354b9503f4cd943e77164dc50c720f0a54',
      v: 119,
      creates: null,
      raw: '0xf9012a81a1849502f9078307a120940ec8ed90154778e52e8ba3503c9d62419c552e6280b8c44ab0d1908cbb6b8c62ed8f9d71c4e9aa92d24abd4a2c655b2f8b2d9f261facffff27c397000000000000000000000000000000000000000000000000000000174876e800000000000000000000000000d7da7f9e8a199e733b8a9f6f9d0a9b1170a1b9b1917dbe350000000000000000000000000000000000000000000000000000000000000000000000000000000000000000000000000000000000000000626834ec00000000000000000000000000000000000000000000000000000000000004d277a04734d16e4b2aaa9cf04eb1bebfc13a52c94e2ac010d1caae6fcae6ef70c8181da039944c1dfdee13ed258bf191f3721a354b9503f4cd943e77164dc50c720f0a54',
      chainId: 42,
      wait: [Function (anonymous)]
    },
    {
      hash: '0xea26e14b46c7485edcf2a96915e059acd8503a3bc9de8ad3ff650e9eea283d7a',
      type: 0,
      accessList: null,
      blockHash: '0x1fc74c8b61cae6c1f47166966ca176655a8f2a4454f46654d7c6413ed76fadc2',
      blockNumber: 31263713,
      transactionIndex: 4,
      confirmations: 9,
      from: '0x8D629DA433Acc56451742b1DE6Fa86b320A79E0f',
      gasPrice: [BigNumber],
      gasLimit: [BigNumber],
      to: '0xbb4E504C214D5E51b9ee806521129A511E2A5767',
      value: [BigNumber],
      nonce: 1599438,
      data: '0x202ee0ed00000000000000000000000000000000000000000000000000000000000203b5000000000000000000000000000000000000000000000000000001a809c77974',
      r: '0x380871fb6fc64207f404cc651269cbf7a49dd72a9600e122713983dcecdaa2b1',
      s: '0x751e84bf05545d27d44cfa8845c402d6880efe5a08b732f136dafdd384dee464',
      v: 120,
      creates: null,
      raw: '0xf8ac831867ce8482164f068307a12094bb4e504c214d5e51b9ee806521129a511e2a576780b844202ee0ed00000000000000000000000000000000000000000000000000000000000203b5000000000000000000000000000000000000000000000000000001a809c7797478a0380871fb6fc64207f404cc651269cbf7a49dd72a9600e122713983dcecdaa2b1a0751e84bf05545d27d44cfa8845c402d6880efe5a08b732f136dafdd384dee464',
      chainId: 42,
      wait: [Function (anonymous)]
    },
    {
      hash: '0x0f08f3809d23b25fabbcab6e14cf2b73a7caa6e3d105f558554b059b575da34a',
      type: 0,
      accessList: null,
      blockHash: '0x1fc74c8b61cae6c1f47166966ca176655a8f2a4454f46654d7c6413ed76fadc2',
      blockNumber: 31263713,
      transactionIndex: 5,
      confirmations: 9,
      from: '0xFbdD7a46E6DA5e3bb290d069e4CB459e5Fd54b33',
      gasPrice: [BigNumber],
      gasLimit: [BigNumber],
      to: '0x57E674032784932Ac981e177B9f9287f57d1Eda0',
      value: [BigNumber],
      nonce: 1,
      data: '0x34907e34000000000000000000000000dcf2d0e379c29f67df42f6b720591ae66da48e3c00000000000000000000000000000000000000000000000000000000000000010000000000000000000000000000000000000000000000000000000000989680000000000000000000000000000000000000001fa6b7890db761e7a1d4faf7b8ffffffffffffffffffffffffffffffffffffffffffffffffffffffffffffe4d0000000000000000000000000000000000000000000000000000000000000000000000000000000000000000000000000000000000000000000000000000f4240',
      r: '0xaf416d96c5a51d5f0d4670c7f27c38eb48eca36f60d88d3e3099e52f6ff33616',
      s: '0x007e98b75d7ca692392ab1c271fa98ecdae0e28e98b1b7e446e02d0a34dfc468',
      v: 27,
      creates: null,
      raw: '0xf90148018459682f468307a1209457e674032784932ac981e177b9f9287f57d1eda080b8e434907e34000000000000000000000000dcf2d0e379c29f67df42f6b720591ae66da48e3c00000000000000000000000000000000000000000000000000000000000000010000000000000000000000000000000000000000000000000000000000989680000000000000000000000000000000000000001fa6b7890db761e7a1d4faf7b8ffffffffffffffffffffffffffffffffffffffffffffffffffffffffffffe4d0000000000000000000000000000000000000000000000000000000000000000000000000000000000000000000000000000000000000000000000000000f42401ba0af416d96c5a51d5f0d4670c7f27c38eb48eca36f60d88d3e3099e52f6ff336169f7e98b75d7ca692392ab1c271fa98ecdae0e28e98b1b7e446e02d0a34dfc468',
      chainId: 0,
      wait: [Function (anonymous)]
    }
  ],
  baseFeePerGas: BigNumber { _hex: '0x07', _isBigNumber: true },
  _difficulty: BigNumber {
    _hex: '0xfffffffffffffffffffffffffffffffe',
    _isBigNumber: true
  }
}